:0200000280007C
:1000000068260720090E0800050E0800050E0800E6
:10001000050E0800050E0800050E0800000000008F
:10002000000000000000000000000000050E0800B5
:10003000050E080000000000050E0800050E08006F
:10004000050E0800050E0800050E0800050E080044
:10005000050E0800050E0800050E0800050E080034
:10006000590F0800050E080000000000D10C080020
:10007000E10C0800050E0800F10C0800000000006B
:1000800000000000050E0800050E0800050E08001F
:10009000050E0800050E0800050E0800050E0800F4
:1000A000050E080000000000050E0800590A0800AF
:1000B000890F0800CD090800A9060800050E0800F0
:1000C000050E0800050E0800050E0800050E0800C4
:1000D000050E0800C9060800050E0800050E0800F8
:1000E000050E0800050E0800050E0800050E0800A4
:1000F000050E080010B5054C237833B9044B13B135
:100100000448AFF300800123237010BD28050720A9
:10011000000000001C1A0800084B10B51BB108496C
:100120000848AFF300800848036803B910BD074BC7
:10013000002BFBD0BDE81040184700BF00000000B6
:100140002C0507201C1A08001C1A080000000000DB
:10015000F8B51B20464CA0471C20A0471D20A047F7
:100160001E20A0472520A04745F2082C414B424ABB
:10017000424C1A60424A434943F8E02C424A4FF449
:10018000804313605361002313639363D3633F4B36
:100190004FF4A8721A604FF400625A602A221A6261
:1001A00001253B4A3B4E9D604FF4404005231360C0
:1001B000394F21603060394EDFF8F8E03E6013605F
:1001C0001022BA607B622160CEF80000CEF818C021
:1001D0004CF2020E7B62BA647B66216044F860ECEC
:1001E0004AF2104E483744F848ECFB6144F8402C82
:1001F0002B4C07F58147236039602A4908608E61DE
:100200002360294B4FF080511A60284B4020C3F8DF
:10021000801183F81C23196020224FF00061C3F87D
:10022000801183F81B2319604FF00051C3F880112F
:1002300083F81D03196050204FF08041C3F88011EE
:1002400083F81E03196030204FF48071C3F88011C9
:1002500083F8080319606021C3F8842183F825130B
:100260005A60134B1D70BFF35F8F62B6F8BD00BFBD
:10027000C50D0800E4000C4000434441E400084080
:1002800080C81518004D495410000C4000080E405D
:1002900000000840040008401C00084080DE800286
:1002A00000400840044008402440084000E100E0CD
:1002B000F9000720440008402DE9F74F40F24F466F
:1002C0002E4B2F4A4FF440411360C2F80032C2F85F
:1002D0000034C2F800362B4B2B4A4FF04067DFF852
:1002E000BCA0DFF8BC901960C3F80072C3F800240A
:1002F000C3F80066443B1960DFF8A880CAF80070B4
:10030000C9F80020214A2248C8F800601160C2F8EC
:1003100000720E22026000240192A0F57F70C0F8E6
:10032000FC654FF4803B04601A4DC0F80042C0F8F1
:1003300000B4C0F8004618460093A8473946504616
:10034000A847019A48461146A84731464046A84763
:10035000009B114D184621460122A84721465046D0
:100360000122A847594648460122A847214640464F
:100370002B46012203B0BDE8F04F1847004F49500B
:10038000E40E0E40440E0E400E000100100E0E4012
:1003900010120E40510B0800470B080000100E40D1
:1003A00000120E4000140E40014B1868704700BF49
:1003B0003C0E0E40014B1868704700BF3C100E40C9
:1003C000014B1868704700BF3C120E40014B186883
:1003D000704700BF3C140E40044B4FF000611B6897
:1003E0000348DB034CBF034B034B18473C120E4042
:1003F00000100E40550B0800510B080082B01E2360
:100400000193019B5A1E0192002BFAD102B0704752
:1004100010B54FF480610448044B9847BDE8104084
:1004200002210348034B184700140E40510B0800EB
:1004300000120E40550B080010B54FF480610448BF
:10044000044B9847BDE8104002210348034B18476E
:1004500000140E40550B080000120E40510B08000E
:1004600070B50A4C0A4D20460821A847094E20467F
:100470000421B047084B984720460821B047204642
:100480002B46BDE870400421184700BF00120E4003
:10049000510B0800550B0800FD03080010B54FF084
:1004A00080610548054B9847BDE810404FF48041F6
:1004B0000348044B184700BF00100E40550B0800BE
:1004C000000E0E40510B080010B54FF0806105483A
:1004D000054B9847BDE810404FF480410348044B5A
:1004E000184700BF00100E40510B0800000E0E40D0
:1004F000550B080070B50E4A1378002BFCD10C4B3D
:1005000001240C4D4FF400410B481C700B4EA847C2
:1005100021460B48B0470B4B98474FF40041064823
:10052000B04721462B46BDE870400548184700BF3C
:10053000DC050720550B0800000E0E40510B08008B
:1005400000140E40FD03080010B5054C02212046A2
:10055000044B98472046BDE810400421024B184741
:1005600000140E40510B0800550B080010B5054C47
:1005700002212046044B98472046BDE81040042144
:10058000024B184700140E40550B0800510B080091
:1005900070B50D4A1378002BFCD10B4B01220B4C8C
:1005A00008210B481A700B4DA04740210848A84766
:1005B000094B984708210648A8472346BDE87040E4
:1005C00040210348184700BFDC050720550B0800F1
:1005D00000140E40510B0800FD030800C0E90A2377
:1005E000704700002DE9F04F0446D0E90A2300F1DE
:1005F0002001D1E9000185B0244FB847D4E90E8924
:1006000082468B46224D42464B46C4E900ABA84782
:10061000D4E906231F4EB04702460B46CDE9000140
:10062000C4E90623D4E9042350465946B847424654
:100630004B46194FB84702460B46CDE90201C4E9C3
:100640000223D4E9102350465946A847D4E912237F
:1006500080468946DDE90001A84702460B46404630
:100660004946B047D4E9142380468946DDE90201B2
:10067000A84702460B4640464946B047C4E904AB8A
:10068000C4E90C0105B0BDE8F08F00BF9910080067
:10069000011408009D1008005516080000F13001F3
:1006A000D1E900017047000007B5044B1B680193B6
:1006B000019B034B984703B05DF804FB20400840C2
:1006C000610408000000000037B5314B314C1B6855
:1006D0000E210193019B3048304B25789847304AD2
:1006E000EDB242F8250023780133DBB22370237882
:1006F0000A2B46D900232B4923700978002940D0C2
:10070000184652F8231001330A2B0844F9D1B0FBE4
:10071000F3F4254B1B689C428CBF244B244B984719
:10072000244B2046984702460B46234823498847D6
:100730002148234B9847234B1F489847224B984703
:10074000224B0028B8BF404218601A68022A204A8B
:1007500015DD0521116018681E4B98471E4C024696
:100760000B4609A1D1E90001A0471C4B98471C4B3F
:10077000B0F5487F38BF4FF44870186001E002239D
:10078000136003B030BD00BF00000000F4068441D8
:1007900030000C404805072000000C40390B0800D1
:1007A000E0050720490507204C0507201104080033
:1007B000390408001513080008060720DD050800A5
:1007C000E50508009D0608002518080044050720D7
:1007D0000040084035130800551608007518080039
:1007E0001C400840014B01221A7070474905072040
:1007F00010B50B4B984708A3D3E90023094CA04739
:10080000094B9847094B18601868094B9847094BE2
:10081000C3E9080110BD00BF7B14AE47E17A344044
:100820005913080001140800751808004C0507202A
:10083000151308000806072010B5074CC4E910235B
:10084000DDE90223C4E90E01C4E91223DDE9042332
:10085000C4E9142310BD00BF0806072000000000F3
:1008600010B5094B40009847084C02460B4604A1BE
:10087000D1E90001A047064B9847064B186010BD10
:1008800000000000F40684413513080055160800E6
:100890007518080064060720F8B5134D134C2B6833
:1008A0002668181A0028A6EB0106114F05DD114B2A
:1008B0009847B8472B68013B04E00F4B9847B8476F
:1008C0002B680133002E2B600C4D05DD0C4B984737
:1008D000A8472368013B04E00A4B9847A8472368D0
:1008E00001332360F8BD00BF5005072054050720E1
:1008F000F50408009D040800C904080091050800DB
:10090000490508006D0508002DE9F74F0C46904297
:10091000B5BF111A811A4FF001094FF0FF399C42FF
:10092000B5BF1E1BE61A4FF001084FF0FF38B14269
:10093000074693469A4618DDC1EB060A194A760027
:100940004FEA4A0A751A4F44C9EB07039B4525D065
:10095000002DA8BF4444384621460192ACBF5544FF
:10096000AD194F449047019AEEE7C6EB010B4D00DD
:100970000C4A4FEA4B0BAE1B4444C8EB04039A45A8
:100980000CD0002EA8BF4F44214638460192ACBF80
:100990005E44761944449047019AEEE703B0BDE8FF
:1009A000F08F00BF99080800002870B409DB002907
:1009B00007DB002A05DB002B03DB034CA44670BCDD
:1009C000604770BC704700BF0909080037B51A4B73
:1009D0001A4A1B680193019B1378012B12D1184B03
:1009E000184D1868184B194C1968884206D91A68AE
:1009F00001321A601868164B984701E00023137003
:100A00002B682360134A1378012B12D10E4B0C492B
:100A1000186809680B4D88420C4C06D91A68013ACF
:100A20001A6018680A4B984701E0002313702B687E
:100A3000236003B030BD00BFA0000840F8000720CD
:100A4000F0000720F4000720EC0007209C0008407D
:100A50006108080058050720084B82B01B68084A47
:100A60000193019B1178074B09B9074A03E0002164
:100A70001170064A12681A6002B0704720000840E0
:100A8000DC0507201C000840A0680600640607205B
:100A900070B50F480F4CA0473E2100200E4B9847E1
:100AA0000E4DA8470028FCD00D4B98470D4A0E4B21
:100AB0000E4D9A62A8470028FCD00D4B1020984795
:100AC0000C4B98472346BDE870400148184700BFCB
:100AD00000BD010589000720450D0800950D08009F
:100AE000A50D0800013F0D2000060E40B50D0800C1
:100AF000010D0800890E08000A4B10B54FF40042A2
:100B00005A60094C0B20A0470C20A0470D20A0479D
:100B10000E20A047BDE81040044A4FF4407104483D
:100B2000044B1847501A0E40C50D0800010000087C
:100B3000000E0E40ED0B08000F299ABF503050F800
:100B40002100002070470AB1416670470166704776
:100B50000163704741637047B1F1805F426414D014
:100B600009D8B1B1B1F1006F12D1016F036F0B4021
:100B700023EA02030BE0B1F1405F0AD0B1F1605FFC
:100B800007D0B1F1205F03D17047036F13430367B0
:100B900042607047D30741644CBF4166016612F062
:100BA0000A0F14BF01624162930702D5C0F880109A
:100BB00003E0130748BFC0F884104161016070472B
:100BC00010B5029C41640CB1416600E001660BB1B6
:100BD000016500E041650AB1016300E04163016124
:100BE000016010BDC06C7047806C704702F0F0432C
:100BF000B3F1205F73B504460D4616461CD00BD8E2
:100C0000B3F1006F0FD0B3F1805F29D16164036F3E
:100C10000B43036761600AE0B3F1405F10D0B3F1AA
:100C2000605F0DD01CE00A4619460F4B9847F0074D
:100C30004CBF6566256601E00C4B9847012010E02B
:100C400006F0605202F1484106F001034A42009367
:100C50004A412046C6F380032946054CA047EDE7EC
:100C6000002002B070BD00BF590B0800950B0800B2
:100C7000C10B0800F8B5134B04460F469847124BBA
:100C800005462046984705401AD0104C04F16006EE
:100C900054F80C3CBB420FD154F8081C29420BD02D
:100CA00023683846984754F8083CA64225EA0305CD
:100CB00006D0103425B1EBE7A64201D01034E7E7A7
:100CC000F8BD00BFE50B0800E90B08006805072028
:100CD0000B210148014B1847000E0E40750C08000F
:100CE0000C210148014B184700100E40750C0800FC
:100CF0000E210148014B184700140E40750C0800E6
:100D00000F4B1A6B22F07002104340F60102186379
:100D1000986E0B49000703D4013AF9D101207047BE
:100D20000A6B22F0030242F002020A6340F601025B
:100D3000996E090702D4013AFAD1EFE70020704713
:100D400000060E4010B5104C30B1236A0F4A1A400D
:100D50000F4B1343236210BD226A090222F45C1375
:100D600023F0030343F45C1389B243F001030B4304
:100D70002362A36E044ADB07FBD5136A43F09B731F
:100D800043F48033136210BD00060E40FCFFC8FE22
:100D900002003701024B986E00F48030704700BFAC
:100DA00000060E40024B4FF000529A62704700BF9F
:100DB00000060E40024B986E00F00200704700BF24
:100DC00000060E402C2817D81F280D4A4FF00103AB
:100DD00007D8916903FA00F030EA01030ED01061E0
:100DE0000CE02038D2F8081103FA00F030EA0103D1
:100DF00004D0C2F8000101E00120704700207047D4
:100E000000060E40FEE7000008B5164A164B9A424F
:100E100002D0043A154903E0154B164A002106E0BA
:100E20008B42F9D252F8040F43F8040BF8E79342CF
:100E300002D243F8041BFAE70F4B104A23F060413B
:100E400021F07F0103F16043B3F5801F91603EBF45
:100E5000936843F000539360094B9847094B9847B8
:100E6000FEE700BF1C1A0800000007202805072025
:100E700028050720680607200000080000ED00E0B4
:100E8000B5180800D90F080010B52C4A136B03F0F1
:100E90000303012B2A4B0DD003D3116ACC011AD5C1
:100EA00025E02849496908064CBF4FF400414FF43A
:100EB000FA4130E0116AC9010BD423491960116A63
:100EC00001F07001102902D0202902D024E01F492E
:100ED00021E01F491FE01C491960116A01F07001EF
:100EE000102902D0202902D003E0184900E0184957
:100EF0001960116B114801F00301022901BF816AD9
:100F0000806AC1F30A44196803BFC0B204FB01112F
:100F1000B1FBF0F10F491960126B02F07002702AF8
:100F200003BF1A680321B2FBF1F2044A1FBF126B20
:100F3000C2F302111A68CA401A6010BD00060E40C2
:100F4000FC000720101A0E4000093D0000127A0034
:100F5000001BB700001C4E0E084B82B01B68084AED
:100F60000193019B074B1B68DBB28DF803309DF8A2
:100F70000330DBB2136002B0704700BF14080E40AC
:100F80001C080E4018080E4013B50B4B0B4C1B6889
:100F90000193019B0A4B98470A4B206098470A4BE4
:100FA00060609847094BA0609847094BE060204675
:100FB000984702B010BD00BF60000840CC05072074
:100FC000A9030800B5030800C1030800CD03080009
:100FD000D9030800000000001FB5214B9847214BA2
:100FE0009847214B98472148214B984718A3D3E9AC
:100FF000002319A1D1E90001CDE902231D4B0022F4
:10100000CDE900231C4C00221C4BA0471C481D4B63
:1010100098471D4B98471D4C0023194618464FF41E
:101020007A72A0474FF47A731A4618460021A047F7
:101030004FF47A72114610460023A04700231A4647
:1010400019464FF47A70A047E6E700BFAFF300807F
:101050007B14AE47E17A843FFCA9F1D24D62503F48
:10106000910A0800F90A080051010800D903080094
:10107000B90208000000F03F3908080000406F4046
:101080000000C842F1070800E5070800A9090800A8
:1010900081F0004102E000BF83F0004330B54FEA29
:1010A00041044FEA430594EA050F08BF90EA020F96
:1010B0001FBF54EA000C55EA020C7FEA645C7FEA29
:1010C000655C00F0E2804FEA5454D4EB5555B8BF4C
:1010D0006D420CDD2C4480EA020281EA030382EABD
:1010E000000083EA010180EA020281EA0303362D4F
:1010F00088BF30BD11F0004F4FEA01314FF4801C22
:101100004CEA113102D0404261EB410113F0004F33
:101110004FEA03334CEA133302D0524263EB4303EA
:1011200094EA050F00F0A780A4F10104D5F1200E88
:101130000DDB02FA0EFC22FA05F2801841F10001E3
:1011400003FA0EF2801843FA05F359410EE0A5F1B7
:1011500020050EF1200E012A03FA0EFC28BF4CF0E8
:10116000020C43FA05F3C01851EBE37101F000459E
:1011700007D54FF0000EDCF1000C7EEB00006EEBAB
:101180000101B1F5801F1BD3B1F5001F0CD3490835
:101190005FEA30004FEA3C0C04F101044FEA44528C
:1011A00012F5800F80F09A80BCF1004F08BF5FEA13
:1011B000500C50F1000041EB045141EA050130BDF3
:1011C0005FEA4C0C404141EB010111F4801FA4F196
:1011D0000104E9D191F0000F04BF01460020B1FAEB
:1011E00081F308BF2033A3F10B03B3F120020CDA23
:1011F0000C3208DD02F1140CC2F10C0201FA0CF001
:1012000021FA02F10CE002F11402D8BFC2F1200C65
:1012100001FA02F120FA0CFCDCBF41EA0C0190401B
:10122000E41AA2BF01EB0451294330BD6FEA040464
:101230001F3C1CDA0C340EDC04F11404C4F120024F
:1012400020FA04F001FA02F340EA030021FA04F361
:1012500045EA030130BDC4F10C04C4F1200220FAB8
:1012600002F001FA04F340EA0300294630BD21FAF6
:1012700004F0294630BD94F0000F83F4801306BFBC
:1012800081F480110134013D4EE77FEA645C18BFB0
:101290007FEA655C29D094EA050F08BF90EA020F47
:1012A00005D054EA000C04BF1946104630BD91EA3F
:1012B000030F1EBF0021002030BD5FEA545C05D142
:1012C0004000494128BF41F0004130BD14F5800481
:1012D0003CBF01F5801130BD01F0004545F0FE41F5
:1012E00041F470014FF0000030BD7FEA645C1ABF2A
:1012F000194610467FEA655C1CBF0B46024650EA61
:10130000013406BF52EA033591EA030F41F400218C
:1013100030BD00BF90F0000F04BF0021704730B512
:101320004FF4806404F132044FF000054FF00001E7
:1013300050E700BF90F0000F04BF0021704730B5A8
:101340004FF4806404F1320410F0004548BF40427D
:101350004FF000013EE700BF42004FEAE2014FEAD2
:1013600031014FEA02701FBF12F07F4393F07F4FAD
:1013700081F06051704792F0000F14BF93F07F4FDF
:10138000704730B54FF4607401F0004521F0004122
:1013900020E700BF50EA010208BF704730B54FF0A8
:1013A00000050AE050EA010208BF704730B511F0AD
:1013B000004502D5404261EB41014FF4806404F1E5
:1013C00032045FEA915C3FF4DCAE4FF003025FEA67
:1013D000DC0C18BF03325FEADC0C18BF033202EBEF
:1013E000DC02C2F1200300FA03FC20FA02F001FA49
:1013F00003FE40EA0E0021FA02F11444C1E600BFE8
:1014000070B54FF0FF0C4CF4E06C1CEA11541DBF9A
:101410001CEA135594EA0C0F95EA0C0F00F0DEF865
:101420002C4481EA030621EA4C5123EA4C5350EA4A
:10143000013518BF52EA033541F4801143F480139B
:1014400038D0A0FB02CE4FF00005E1FB02E506F02C
:101450000042E0FB03E54FF00006E1FB03569CF081
:10146000000F18BF4EF0010EA4F1FF04B6F5007F87
:1014700064F5407404D25FEA4E0E6D4146EB0606F9
:1014800042EAC62141EA55514FEAC52040EA5E5082
:101490004FEACE2EB4F1FD0C88BFBCF5E06F1ED82C
:1014A000BEF1004F08BF5FEA500E50F1000041EB63
:1014B000045170BD06F0004646EA010140EA020010
:1014C00081EA0301B4EB5C04C2BFD4EB0C0541EA32
:1014D000045170BD41F480114FF0000E013C00F347
:1014E000AB8014F1360FDEBF002001F0004170BD6B
:1014F000C4F10004203C35DA0C341BDC04F1140484
:10150000C4F1200500FA05F320FA04F001FA05F20F
:1015100040EA020001F0004221F0004110EBD370DC
:1015200021FA04F642EB06015EEA430E08BF20EA08
:10153000D37070BDC4F10C04C4F1200500FA04F3AB
:1015400020FA05F001FA04F240EA020001F000413D
:1015500010EBD37041F100015EEA430E08BF20EAB0
:10156000D37070BDC4F1200500FA05F24EEA020EF8
:1015700020FA04F301FA05F243EA020321FA04F027
:1015800001F0004121FA04F220EA020000EBD370DE
:101590005EEA430E08BF20EAD37070BD94F0000FDE
:1015A0000FD101F00046400041EB010111F4801F12
:1015B00008BF013CF7D041EA060195F0000F18BFC3
:1015C000704703F00046520043EB030313F4801FFF
:1015D00008BF013DF7D043EA0603704794EA0C0FB9
:1015E0000CEA135518BF95EA0C0F0CD050EA4106CF
:1015F00018BF52EA4306D1D181EA030101F000414C
:101600004FF0000070BD50EA410606BF1046194673
:1016100052EA430619D094EA0C0F02D150EA01367F
:1016200013D195EA0C0F05D152EA03361CBF1046C0
:1016300019460AD181EA030101F0004141F0FE415F
:1016400041F470014FF0000070BD41F0FE4141F4E3
:10165000780170BD70B54FF0FF0C4CF4E06C1CEAE3
:1016600011541DBF1CEA135594EA0C0F95EA0C0F98
:1016700000F0A7F8A4EB050481EA030E52EA033553
:101680004FEA013100F088804FEA03334FF0805574
:1016900045EA131343EA12634FEA022245EA1115A1
:1016A00045EA10654FEA00260EF000419D4208BF52
:1016B000964244F1FD0404F5407402D25B084FEAFF
:1016C0003202B61A65EB03055B084FEA32024FF4AB
:1016D00080104FF4002CB6EB020E75EB030E22BF08
:1016E000B61A754640EA0C005B084FEA3202B6EBC8
:1016F000020E75EB030E22BFB61A754640EA5C0077
:101700005B084FEA3202B6EB020E75EB030E22BF06
:10171000B61A754640EA9C005B084FEA3202B6EB07
:10172000020E75EB030E22BFB61A754640EADC00C6
:1017300055EA060E18D04FEA051545EA16754FEA28
:1017400006164FEAC30343EA52734FEAC2025FEA46
:101750001C1CC0D111F4801F0BD141EA00014FF0D5
:1017600000004FF0004CB6E711F4801F04BF0143A6
:101770000020B4F1FD0C88BFBCF5E06F3FF6AFAEC2
:10178000B5EB030C04BFB6EB020C5FEA500C50F152
:10179000000041EB045170BD0EF0004E4EEA1131D5
:1017A00014EB5C04C2BFD4EB0C0541EA045170BDDC
:1017B00041F480114FF0000E013C90E645EA060E20
:1017C0008DE60CEA135594EA0C0F08BF95EA0C0F4E
:1017D0003FF43BAF94EA0C0F0AD150EA01347FF496
:1017E00034AF95EA0C0F7FF425AF104619462CE76D
:1017F00095EA0C0F06D152EA03353FF4FDAE1046D0
:10180000194622E750EA410618BF52EA43067FF420
:10181000C5AE50EA41047FF40DAF52EA43057FF4B0
:10182000EBAE12E74FEA410212F5001215D211D5C4
:101830006FF47873B3EB625212D94FEAC12343F0CD
:10184000004343EA505311F0004F23FA02F018BF4F
:10185000404270474FF00000704750EA013005D118
:1018600011F0004008BF6FF0004070474FF00000DB
:10187000704700BF4A0011D212F5001211D20DD5E7
:101880006FF47873B3EB62520ED44FEAC12343F086
:10189000004343EA505323FA02F070474FF0000030
:1018A000704750EA013002D14FF0FF3070474FF0DF
:1018B0000000704770B50F4E0F4D761BB61018BF65
:1018C000002405D0013455F8043B9847A642F9D1CD
:1018D0000A4E0B4D00F090F8761BB61018BF00248E
:1018E00006D0013455F8043B9847A642F9D170BDA3
:1018F00070BD00BF041A0800041A08000C1A080082
:10190000041A0800024B13B1024800F005B87047F2
:101910000000000025190800002301461A46184659
:1019200000F014B838B5074D074C2C1BA41005D097
:10193000013C55F8043D9847002CF9D1BDE83840EA
:1019400000F064B81C1A0800181A08002DE9F047C6
:10195000254C064625688846D5F848419246994662
:10196000C4B360681F2817DC411C76B104EB800308
:10197000C3F888A0D4F88851012282401543022E72
:10198000C4F88851C3F808911ED0831C6160002000
:1019900044F82380BDE8F087144B03B34FF4C870BC
:1019A000AFF300800446D0B1D5F84831002784E871
:1019B00088003846C5F848410121C4F88871C4F848
:1019C0008C71002EE1D0D1E7D4F88C311A43C4F8E1
:1019D0008C21DAE705F5A674C5F84841C1E74FF058
:1019E000FF30BDE8F08700BFF419080000000000D8
:1019F0004300000000010720F8B500BFF8BC08BC98
:101A00009E4670470519080019010800F8B500BF87
:0C1A1000F8BC08BC9E467047F5000800BA
:101A1C001A4A4FF480631360C2F80032184B1A6AEA
:101A2C00D10102D5174A1A6205E0174A1A629A6E5A
:101A3C00D207FCD5F6E79A6E1149D003FBD50A6B99
:101A4C0022F0030242F001020A639A6E1207FCD5DF
:101A5C000E490B4A91629A6E9007FCD5084A1121E7
:101A6C0011639A6E1107FCD5054A122111639A6E07
:101A7C001207FCD5064A074B1A607047000A0E4045
:101A8C0000060E400908370109083700013F0D20F8
:101A9C0000BD0105FC000720114B124A9842124B65
:101AAC0001D8002118E01149884202D84FF4807106
:101ABC0012E00F49884202D84FF400710CE00D4936
:101ACC00884202D84FF4407106E00B49884294BF1B
:101ADC004FF480614FF4A06111601960704700BF32
:101AEC00BFEA2101000A0E40000C0E407FF0FA0202
:101AFC00FF8FD003FFB3C4047F4A5D05E8030000E9
:101B0C00E8030000C40900000101000000093D00C9
:101B1C0000000000EC03072054040720BC0407203D
:101B2C0000000000000000000000000000000000A9
:101B3C000000000000000000000000000000000099
:101B4C0000000000F0190800000000000000000078
:101B5C000000000000000000000000000000000079
:101B6C000000000000000000000000000000000069
:101B7C000000000000000000000000000000000059
:101B8C000000000000000000000000000000000049
:101B9C000000000000000000000000000000000039
:101BAC000000000000000000000000000000000029
:101BBC000000000000000000010000000000000018
:101BCC000E33CDAB34126DE6ECDE05000B000000DD
:101BDC0000000000000000000000000000000000F9
:101BEC0000000000000000000000000000000000E9
:101BFC0000000000000000000000000000000000D9
:101C0C0000000000000000000000000000000000C8
:0400000380000E0962
:00000001FF
