:0200000280007C
:1000000000260720410908003D0908003D090800B5
:100010003D0908003D0908003D09080000000000F6
:100020000000000000000000000000003D09080082
:100030003D090800000000003D0908003D090800D6
:100040003D0908003D0908003D0908003D09080078
:100050003D0908003D0908003D0908003D09080068
:10006000910A08003D090800000000000908080086
:10007000190808003D0908002908080000000000D0
:10008000000000003D0908003D0908003D09080086
:100090003D0908003D0908003D0908003D09080028
:1000A0003D090800000000003D090800C10A0800E1
:1000B000ED0A08002D0B0800BD0B08003D090800E3
:1000C0003D0908003D0908003D0908003D090800F8
:1000D0003D090800D90B08003D0908003D0908004A
:1000E0003D0908003D0908003D0908003D090800D8
:1000F0003D09080010B5054C237833B9044B13B102
:100100000448AFF300800123237010BD30050720A1
:1001100000000000A4170800084B10B51BB10849E7
:100120000848AFF300800848036803B910BD074BC7
:10013000002BFBD0BDE81040184700BF00000000B6
:1001400034050720A4170800A417080000000000C9
:100150002DE9F041DFF87880184F194C194E002333
:100160004FF440424FF040514046A047164D002307
:100170004FF040624FF040513846A04700230E2216
:100180004FF040513046A047002340F24F424FF01D
:1001900040512846A0470D4C40464FF44041A047EF
:1001A00038464FF04061A04730460E21A047284610
:1001B0002346BDE8F04140F24F41184700100E4081
:1001C000A506080000120E4000140E40F7050800B6
:1001D000000E0E4082B01E230193019B5A1E019215
:1001E000002BFAD102B0704710B54FF4806104487B
:1001F000044B9847BDE8104002210348034B1847C1
:1002000000140E40F705080000120E40FB05080020
:1002100010B54FF480610448044B9847BDE8104086
:1002200002210348034B184700140E40FB05080049
:1002300000120E40F705080070B50A4C0A4D204622
:100240000821A847094E20460421B047084B98478B
:1002500020460821B04720462B46BDE870400421C7
:10026000184700BF00120E40F7050800FB05080004
:10027000D501080010B54FF080610548054B98473F
:10028000BDE810404FF480410348044B184700BFBD
:1002900000100E40F7050800000E0E40FB05080098
:1002A00010B54FF080610548054B9847BDE81040F8
:1002B0004FF480410348044B184700BF00100E4024
:1002C000FB050800000E0E40F705080070B50E4A49
:1002D0001378002BFCD10C4B01240C4D4FF4004142
:1002E0000B481C700B4EA84721460B48B0470B4BE0
:1002F00098474FF400410648B04721462B46BDE8D9
:1003000070400548184700BFCD050720FB050800D1
:10031000000E0E40F705080000140E40D50108003D
:1003200010B5054C02212046044B98472046BDE8F5
:1003300010400421024B184700140E40F705080036
:10034000FB05080010B5054C02212046044B9847D8
:100350002046BDE810400421024B184700140E400F
:10036000FB050800F705080070B50D4A1378002B4F
:10037000FCD10B4B01220B4C08210B481A700B4D82
:10038000A04740210848A847094B9847082106483C
:10039000A8472346BDE8704040210348184700BFE6
:1003A000CD050720FB05080000140E40F7050800E6
:1003B000D50108000000000010B5094B4000984727
:1003C000084C02460B4604A1D1E90001A047064BA8
:1003D0009847064B186010BD00000000F4068441E9
:1003E0000D1108002D140800FD150800D405072084
:1003F000084B094A18601068196888423EBF0749CF
:100400000120087012681B689A4282BF044B0122C7
:100410001A707047F0000720EC000720F800072052
:1004200054050720F8B5134D134C2B682668181A8D
:100430000028A6EB0106114F05DD114B9847B84780
:100440002B68013B04E00F4B9847B8472B680133FA
:10045000002E2B600C4D05DD0C4B9847A8472368F8
:10046000013B04E00A4B9847A84723680133236007
:10047000F8BD00BF4C05072050050720CD0208003D
:1004800075020800A10208006903080021030800A2
:10049000450308002DE9F74F071E0C469346984682
:1004A00049DB002947DB002A45DB002B43DB974271
:1004B000B5BFD11BB91A4FF0010A4FF0FF3A9C4269
:1004C000B5BF1E1BE61A4FF001094FF0FF39B142CC
:1004D00018DDC1EB0608194A76004FEA4808751A7C
:1004E0005744CAEB07039B4525D0002DA8BF4C44B9
:1004F000384621460192ACBF4544AD195744904758
:10050000019AEEE7C6EB010B4D000C4A4FEA4B0B8C
:10051000AE1B4C44C9EB040398450CD0002EA8BF79
:100520005744214638460192ACBF5E4476194C448C
:100530009047019AEEE703B0BDE8F08F250408006C
:1005400070B50F480F4CA0473E2100200E4B984736
:100550000E4DA8470028FCD00D4B98470D4A0E4B76
:100560000E4D9A62A8470028FCD00D4B10209847EA
:100570000C4B98472346BDE870400148184700BF20
:1005800000BD0105890007207D080800CD0808008E
:10059000DD080800013F0D2000060E40ED080800B0
:1005A00039080800C10908000A4B10B54FF4004291
:1005B0005A60094C0B20A0470C20A0470D20A047F3
:1005C0000E20A047BDE81040044A4FF44071044893
:1005D000044B1847501A0E40FD080800010000089F
:1005E000000E0E40250708000F299ABF503050F822
:1005F000210000207047016370474163704721F07C
:100600000061B1F1405F0CBF836BC36B134214BF39
:10061000012000207047B1F1805F426414D009D8F6
:10062000B1B1B1F1006F12D1016F036F0B4023EA3A
:1006300002030BE0B1F1405F0AD0B1F1605F07D077
:10064000B1F1205F03D17047036F1343036742602A
:100650007047D30741644CBF4166016612F00A0F30
:1006600014BF01624162930702D5C0F8801003E015
:10067000130748BFC0F8841041610160704710B58E
:10068000029C41640CB1416600E001660BB101655A
:1006900000E041650AB1016300E04163016101606E
:1006A00010BD0000B1F1205F73B5054614461E462B
:1006B00017D006D8B1F1006F0AD0B1F1805F07D032
:1006C00023E0B1F1405F12D0B1F1605F0FD01CE0C8
:1006D000284622460E4B9847F0074CBF6C662C66A6
:1006E00003E01A4621460B4B984701200EE001F12A
:1006F000484106F001034A4200934A41C6F3800391
:1007000021462846044CA047EFE7002002B070BD08
:1007100017060800530608007F060800C06C7047E3
:10072000806C704702F0F043B3F1205F73B504466C
:100730000D4616461CD00BD8B3F1006F0FD0B3F1A5
:10074000805F29D16164036F0B43036761600AE036
:10075000B3F1405F10D0B3F1605F0DD01CE00A46EA
:1007600019460F4B9847F0074CBF6566256601E0B8
:100770000C4B9847012010E006F0605202F148410E
:1007800006F001034A4200934A412046C6F3800323
:100790002946054CA047EDE7002002B070BD00BF20
:1007A00017060800530608007F060800F8B5134B2B
:1007B00004460F469847124B054620469847054089
:1007C0001AD0104C04F1600654F80C3CBB420FD117
:1007D00054F8081C29420BD023683846984754F82F
:1007E000083CA64225EA030506D0103425B1EBE704
:1007F000A64201D01034E7E7F8BD00BF1D0708008E
:1008000021070800640507200B210148014B184708
:10081000000E0E40AD0708000C210148014B18479F
:1008200000100E40AD0708000E210148014B18478B
:1008300000140E40AD0708000F4B1A6B22F0700237
:10084000104340F601021863986E0B49000703D469
:10085000013AF9D1012070470A6B22F0030242F0FD
:1008600002020A6340F60102996E090702D4013AB6
:10087000FAD1EFE70020704700060E4010B5104C8B
:1008800030B1236A0F4A1A400F4B1343236210BD45
:10089000226A090222F45C1323F0030343F45C137D
:1008A00089B243F001030B432362A36E044ADB07C2
:1008B000FBD5136A43F09B7343F48033136210BD7E
:1008C00000060E40FCFFC8FE02003701024B986E86
:1008D00000F48030704700BF00060E40024B4FF01E
:1008E00000529A62704700BF00060E40024B986E9D
:1008F00000F00200704700BF00060E402C2817D8F9
:100900001F280D4A4FF0010307D8916903FA00F040
:1009100030EA01030ED010610CE02038D2F8081143
:1009200003FA00F030EA010304D0C2F8000101E04C
:10093000012070470020704700060E40FEE70000CF
:1009400008B5164A164B9A4202D0043A154903E0FC
:10095000154B164A002106E08B42F9D252F8040FDB
:1009600043F8040BF8E7934202D243F8041BFAE77A
:100970000F4B104A23F0604121F07F0103F16043E7
:10098000B3F5801F91603EBF936843F000539360BE
:10099000094B9847094B9847FEE700BFA41708008A
:1009A000000007203005072030050720000607203B
:1009B0000000080000ED00E03D160800990C08005A
:1009C00010B52C4A136B03F00303012B2A4B0DD0F7
:1009D00003D3116ACC011AD525E0284949690806D4
:1009E0004CBF4FF400414FF4FA4130E0116AC901A5
:1009F0000BD423491960116A01F07001102902D04B
:100A0000202902D024E01F4921E01F491FE01C4992
:100A10001960116A01F07001102902D0202902D05A
:100A200003E0184900E018491960116B114801F002
:100A30000301022901BF816A806AC1F30A4419686F
:100A400003BFC0B204FB0111B1FBF0F10F49196003
:100A5000126B02F07002702A03BF1A680321B2FB06
:100A6000F1F2044A1FBF126BC2F302111A68CA40A6
:100A70001A6010BD00060E40FC000720101A0E4040
:100A800000093D0000127A00001BB700001C4E0E4A
:100A9000084B82B01B68084A0193019B074B1B68F7
:100AA000DBB28DF803309DF80330DBB2136002B087
:100AB000704700BF14080E401C080E4018080E4076
:100AC000064B82B01B6800220193019B044B1A70F5
:100AD000044B1A68044B1A6002B0704720000840AB
:100AE000CD050720D40507201C00084007B50B4B97
:100AF0004FF480321B684FF020510193019B08484E
:100B0000084B984710F0FF0F14BF45F2082241F63A
:100B10005832054B1A6003B05DF804FB60000840D2
:100B200000120E40FF0508005C00084037B51B4B63
:100B30001B4A1B680193019B1378012B13D1194B9E
:100B4000194D1868194B1A4C1968884207D91A6848
:100B500001321A601868174B00B2984701E0002371
:100B600013702B682360144A1378012B13D10F4B99
:100B70000C49186809680C4D88420D4C07D91A6851
:100B8000013A1A6018680B4B00B2984701E0002345
:100B900013702B68236003B030BD00BFA000084075
:100BA000F8000720F0000720F4000720EC000720E1
:100BB0009C000840B90308005405072007B5044B02
:100BC0001B680193019B034B984703B05DF804FB3E
:100BD000204008403902080037B5234B234D1B68DD
:100BE0000E210193019B2248224B2C789847224AE0
:100BF000E4B242F824002B780133DBB22B702B785F
:100C00000A2B2FD9002423462C7052F824100134CB
:100C10000A2C0B44F9D1B3FBF4F4184B1D461A68A7
:100C200094428CBF164B174B98472B68164AE31A11
:100C3000002BB8BF5B4213601368142B134B0FDDFE
:100C400005211960126864235A43114B93FBF2F398
:100C5000104AB3F57A7F38BF4FF47A73136001E01E
:100C600002221A6003B030BD30000C40CC050720D2
:100C700000000C40E9050800D80507200001072006
:100C8000E901080011020800C805072000400840DB
:100C900080DE80021C40084045F2082880B55A4B8F
:100CA00098475A4B98475A4B98475A4C1B20A04795
:100CB0001C20A0471D20A0471E20A0472520A0479C
:100CC000554B564A00241A60554A564D43F8E02CBD
:100CD000554A4FF4804313605361544B4FF4A8724C
:100CE0001C609C60DC6003F5013303F570731A60CF
:100CF0004FF400625A602A221A624D4901264D4A79
:100D00004D4F9E604FF4404005231360DFF850E1E3
:100D100029603860494FDFF84CC1CEF8007013608D
:100D20001022CEF80820CEF824302960CCF800003C
:100D3000CCF818804CF2020CCEF82430CEF84820C3
:100D4000CEF86430296045F860CC4AF2104C0EF1C0
:100D5000480E45F848CCCEF81C3045F8402C384DAC
:100D60000EF5814E2B60CEF80010364908608F6179
:100D70002B60354B4FF080511A60344B4020C3F844
:100D8000801183F81C23196020224FF00061C3F802
:100D9000801183F81B2319604FF00051C3F88011B4
:100DA00083F81D03196050204FF08041C3F8801173
:100DB00083F81E03196030204FF48071C3F880114E
:100DC00083F8080319606021C3F8842183F8251390
:100DD0005A601F4B1E70BFF35F8F62B664201D4FB9
:100DE000B8471D4D3346324621462046A847234684
:100DF000224631463046A84744F62060B8470022D4
:100E0000164B11461046F6E741050800A9050800F3
:100E100051010800FD080800E4000C400043444173
:100E200080C81518E400084010000C4040000C4039
:100E3000004D4954000008400400084080DE800254
:100E400000400840044008402440084000E100E021
:100E5000F9000720F10308009504080040420F0044
:100E60001C0008404400084081F0004102E000BF3F
:100E700083F0004330B54FEA41044FEA430594EA5A
:100E8000050F08BF90EA020F1FBF54EA000C55EA95
:100E9000020C7FEA645C7FEA655C00F0E2804FEA66
:100EA0005454D4EB5555B8BF6D420CDD2C4480EA48
:100EB000020281EA030382EA000083EA010180EA78
:100EC000020281EA0303362D88BF30BD11F0004FC6
:100ED0004FEA01314FF4801C4CEA113102D04042FC
:100EE00061EB410113F0004F4FEA03334CEA133337
:100EF00002D0524263EB430394EA050F00F0A7804F
:100F0000A4F10104D5F1200E0DDB02FA0EFC22FA49
:100F100005F2801841F1000103FA0EF2801843FA3D
:100F200005F359410EE0A5F120050EF1200E012A2E
:100F300003FA0EFC28BF4CF0020C43FA05F3C0186C
:100F400051EBE37101F0004507D54FF0000EDCF1E5
:100F5000000C7EEB00006EEB0101B1F5801F1BD38E
:100F6000B1F5001F0CD349085FEA30004FEA3C0C92
:100F700004F101044FEA445212F5800F80F09A8088
:100F8000BCF1004F08BF5FEA500C50F1000041EB8C
:100F9000045141EA050130BD5FEA4C0C404141EB90
:100FA000010111F4801FA4F10104E9D191F0000FB7
:100FB00004BF01460020B1FA81F308BF2033A3F13A
:100FC0000B03B3F120020CDA0C3208DD02F1140C31
:100FD000C2F10C0201FA0CF021FA02F10CE002F16C
:100FE0001402D8BFC2F1200C01FA02F120FA0CFC65
:100FF000DCBF41EA0C019040E41AA2BF01EB0451AE
:10100000294330BD6FEA04041F3C1CDA0C340EDCAB
:1010100004F11404C4F1200220FA04F001FA02F3EE
:1010200040EA030021FA04F345EA030130BDC4F1AC
:101030000C04C4F1200220FA02F001FA04F340EAA1
:101040000300294630BD21FA04F0294630BD94F052
:10105000000F83F4801306BF81F480110134013D39
:101060004EE77FEA645C18BF7FEA655C29D094EAAA
:10107000050F08BF90EA020F05D054EA000C04BF28
:101080001946104630BD91EA030F1EBF0021002013
:1010900030BD5FEA545C05D14000494128BF41F0B2
:1010A000004130BD14F580043CBF01F5801130BD16
:1010B00001F0004545F0FE4141F470014FF00000A1
:1010C00030BD7FEA645C1ABF194610467FEA655C52
:1010D0001CBF0B46024650EA013406BF52EA0335F4
:1010E00091EA030F41F4002130BD00BF90F0000FE2
:1010F00004BF0021704730B54FF4806404F132041E
:101100004FF000054FF0000150E700BF90F0000FD6
:1011100004BF0021704730B54FF4806404F13204FD
:1011200010F0004548BF40424FF000013EE700BFCD
:1011300042004FEAE2014FEA31014FEA02701FBF5D
:1011400012F07F4393F07F4F81F06051704792F02F
:10115000000F14BF93F07F4F704730B54FF46074A9
:1011600001F0004521F0004120E700BF50EA0102F4
:1011700008BF704730B54FF000050AE050EA0102A1
:1011800008BF704730B511F0004502D5404261EB11
:1011900041014FF4806404F132045FEA915C3FF452
:1011A000DCAE4FF003025FEADC0C18BF03325FEAEB
:1011B000DC0C18BF033202EBDC02C2F1200300FAA0
:1011C00003FC20FA02F001FA03FE40EA0E0021FAC5
:1011D00002F11444C1E600BF70B54FF0FF0C4CF4AF
:1011E000E06C1CEA11541DBF1CEA135594EA0C0F65
:1011F00095EA0C0F00F0DEF82C4481EA030621EAA0
:101200004C5123EA4C5350EA013518BF52EA0335DA
:1012100041F4801143F4801338D0A0FB02CE4FF08C
:101220000005E1FB02E506F00042E0FB03E54FF0BC
:101230000006E1FB03569CF0000F18BF4EF0010EB4
:10124000A4F1FF04B6F5007F64F5407404D25FEAB0
:101250004E0E6D4146EB060642EAC62141EA555163
:101260004FEAC52040EA5E504FEACE2EB4F1FD0CA5
:1012700088BFBCF5E06F1ED8BEF1004F08BF5FEA23
:10128000500E50F1000041EB045170BD06F00046D5
:1012900046EA010140EA020081EA0301B4EB5C0482
:1012A000C2BFD4EB0C0541EA045170BD41F480117A
:1012B0004FF0000E013C00F3AB8014F1360FDEBF9F
:1012C000002001F0004170BDC4F10004203C35DA7B
:1012D0000C341BDC04F11404C4F1200500FA05F3FE
:1012E00020FA04F001FA05F240EA020001F000429F
:1012F00021F0004110EBD37021FA04F642EB060115
:101300005EEA430E08BF20EAD37070BDC4F10C043E
:10131000C4F1200500FA04F320FA05F001FA04F202
:1013200040EA020001F0004110EBD37041F10001EE
:101330005EEA430E08BF20EAD37070BDC4F12005F9
:1013400000FA05F24EEA020E20FA04F301FA05F261
:1013500043EA020321FA04F001F0004121FA04F209
:1013600020EA020000EBD3705EEA430E08BF20EAD9
:10137000D37070BD94F0000F0FD101F00046400013
:1013800041EB010111F4801F08BF013CF7D041EA95
:10139000060195F0000F18BF704703F00046520099
:1013A00043EB030313F4801F08BF013DF7D043EA6A
:1013B0000603704794EA0C0F0CEA135518BF95EA20
:1013C0000C0F0CD050EA410618BF52EA4306D1D1A7
:1013D00081EA030101F000414FF0000070BD50EAC6
:1013E000410606BF1046194652EA430619D094EA50
:1013F0000C0F02D150EA013613D195EA0C0F05D13A
:1014000052EA03361CBF104619460AD181EA03018D
:1014100001F0004141F0FE4141F470014FF0000045
:1014200070BD41F0FE4141F4780170BD70B54FF0E0
:10143000FF0C4CF4E06C1CEA11541DBF1CEA135560
:1014400094EA0C0F95EA0C0F00F0A7F8A4EB050442
:1014500081EA030E52EA03354FEA013100F0888039
:101460004FEA03334FF0805545EA131343EA126302
:101470004FEA022245EA111545EA10654FEA0026B7
:101480000EF000419D4208BF964244F1FD0404F570
:10149000407402D25B084FEA3202B61A65EB0305CC
:1014A0005B084FEA32024FF480104FF4002CB6EB89
:1014B000020E75EB030E22BFB61A754640EA0C0009
:1014C0005B084FEA3202B6EB020E75EB030E22BF49
:1014D000B61A754640EA5C005B084FEA3202B6EB8A
:1014E000020E75EB030E22BFB61A754640EA9C0049
:1014F0005B084FEA3202B6EB020E75EB030E22BF19
:10150000B61A754640EADC0055EA060E18D04FEAD6
:10151000051545EA16754FEA06164FEAC30343EA76
:1015200052734FEAC2025FEA1C1CC0D111F4801F43
:101530000BD141EA00014FF000004FF0004CB6E73C
:1015400011F4801F04BF01430020B4F1FD0C88BFDB
:10155000BCF5E06F3FF6AFAEB5EB030C04BFB6EBE6
:10156000020C5FEA500C50F1000041EB045170BDD9
:101570000EF0004E4EEA113114EB5C04C2BFD4EB06
:101580000C0541EA045170BD41F480114FF0000E8A
:10159000013C90E645EA060E8DE60CEA135594EA06
:1015A0000C0F08BF95EA0C0F3FF43BAF94EA0C0F09
:1015B0000AD150EA01347FF434AF95EA0C0F7FF47E
:1015C00025AF104619462CE795EA0C0F06D152EAD2
:1015D00003353FF4FDAE1046194622E750EA4106B6
:1015E00018BF52EA43067FF4C5AE50EA41047FF4C7
:1015F0000DAF52EA43057FF4EBAE12E74A0011D279
:1016000012F5001211D20DD56FF47873B3EB62525C
:101610000ED44FEAC12343F0004343EA505323FA68
:1016200002F070474FF00000704750EA013002D1DD
:101630004FF0FF3070474FF00000704770B50F4E0D
:101640000F4D761BB61018BF002405D0013455F895
:10165000043B9847A642F9D10A4E0B4D00F090F892
:10166000761BB61018BF002406D0013455F8043B91
:101670009847A642F9D170BD70BD00BF8C17080015
:101680008C170800941708008C170800024B13B140
:10169000024800F005B8704700000000AD160800D1
:1016A000002301461A46184600F014B838B5074D15
:1016B000074C2C1BA41005D0013C55F8043D98475D
:1016C000002CF9D1BDE8384000F064B8A417080038
:1016D000A01708002DE9F047254C064625688846E6
:1016E000D5F8484192469946C4B360681F2817DC74
:1016F000411C76B104EB8003C3F888A0D4F888516C
:10170000012282401543022EC4F88851C3F8089183
:101710001ED0831C6160002044F82380BDE8F08760
:10172000144B03B34FF4C870AFF300800446D0B13C
:10173000D5F84831002784E888003846C5F8484184
:101740000121C4F88871C4F88C71002EE1D0D1E772
:10175000D4F88C311A43C4F88C21DAE705F5A67465
:10176000C5F84841C1E74FF0FF30BDE8F08700BF42
:101770007C1708000000000043000000080107205B
:10178000F8B500BFF8BC08BC9E4670478D1608002F
:1017900019010800F8B500BFF8BC08BC9E467047A8
:0417A000F500080048
:1017A4001A4A4FF480631360C2F80032184B1A6A65
:1017B400D10102D5174A1A6205E0174A1A629A6ED5
:1017C400D207FCD5F6E79A6E1149D003FBD50A6B14
:1017D40022F0030242F001020A639A6E1207FCD55A
:1017E4000E490B4A91629A6E9007FCD5084A112162
:1017F40011639A6E1107FCD5054A122111639A6E82
:101804001207FCD5064A074B1A607047000A0E40BF
:1018140000060E400908370109083700013F0D2072
:1018240000BD0105FC000720114B124A9842124BDF
:1018340001D8002118E01149884202D84FF4807180
:1018440012E00F49884202D84FF400710CE00D49B0
:10185400884202D84FF4407106E00B49884294BF95
:101864004FF480614FF4A06111601960704700BFAC
:10187400BFEA2101000A0E40000C0E407FF0FA027C
:10188400FF8FD003FFB3C4047F4A5D0557040000F3
:1018940057040000640000000101000000093D003D
:1018A400000800000000000000000000F40307200E
:1018B4005C040720C40407200000000000000000AE
:1018C4000000000000000000000000000000000014
:1018D400000000000000000000000000781708006D
:1018E40000000000000000000000000000000000F4
:1018F40000000000000000000000000000000000E4
:1019040000000000000000000000000000000000D3
:1019140000000000000000000000000000000000C3
:1019240000000000000000000000000000000000B3
:1019340000000000000000000000000000000000A3
:101944000000000000000000000000000000000093
:1019540001000000000000000E33CDAB34126DE630
:10196400ECDE05000B000000000000000000000099
:101974000000000000000000000000000000000063
:101984000000000000000000000000000000000053
:101994000000000000000000000000000000000043
:1019A4000000000000000000000000000000000033
:04000003800009412F
:00000001FF
