S00C00007A6F6C772E737265634C
S21408000050260720310B08002D0B08002D0B080082
S2140800102D0B08002D0B08002D0B08000000000013
S2140800200000000000000000000000002D0B080083
S2140800302D0B0800000000002D0B08002D0B0800F3
S2140800402D0B08002D0B08002D0B08002D0B0800A3
S2140800502D0B08002D0B08002D0B08002D0B080093
S214080060810C08002D0B080000000000F9090800A4
S214080070090A08002D0B0800190A080000000000ED
S214080080000000002D0B08002D0B08002D0B0800A3
S2140800902D0B08002D0B08002D0B08002D0B080053
S2140800A02D0B0800000000002D0B080005070800AF
S2140800B0B10C080079060800A90408002D0B0800F2
S2140800C02D0B08002D0B08002D0B08002D0B080023
S2140800D02D0B0800C50408002D0B08002D0B080082
S2140800E02D0B08002D0B08002D0B08002D0B080003
S2140800F02D0B080010B5054C237833B9044B13B103
S2140801000448AFF300800123237010BD280507209C
S21408011000000000E8160800084B10B51BB1084997
S2140801200848AFF300800848036803B910BD074BBA
S214080130002BFBD0BDE81040184700BF00000000A9
S2140801402C050720E8160800E8160800000000003E
S214080150F8B51B20464CA0471C20A0471D20A047EA
S2140801601E20A0472520A04745F2082C414B424AAE
S214080170424C1A60424A434943F8E02C424A4FF43C
S214080180804313605361002313639363D3633F4B29
S2140801904FF4A8721A604FF400625A602A221A6254
S2140801A001253B4A3B4E9D604FF4404005231360B3
S2140801B0394F21603060394EDFF8F8E03E60136052
S2140801C01022BA607B622160CEF80000CEF818C014
S2140801D04CF2020E7B62BA647B66216044F860ECDF
S2140801E04AF2104E483744F848ECFB6144F8402C75
S2140801F02B4C07F58147236039602A4908608E61D1
S2140802002360294B4FF080511A60284B4020C3F8D2
S214080210801183F81C23196020224FF00061C3F870
S214080220801183F81B2319604FF00051C3F8801122
S21408023083F81D03196050204FF08041C3F88011E1
S21408024083F81E03196030204FF48071C3F88011BC
S21408025083F8080319606021C3F8842183F82513FE
S2140802605A60134B1D70BFF35F8F62B6F8BD00BFB0
S214080270ED0A0800E4000C4000434441E40008404E
S21408028080C81518004D495410000C4000080E4050
S21408029000000840040008401C00084080DE800279
S2140802A000400840044008402440084000E100E0C0
S2140802B0F9000720440008402DE9F041DFF878806F
S2140802C0184F194C194E00234FF440424FF0405136
S2140802D04046A047164D00234FF040624FF040516D
S2140802E03846A04700230E224FF040513046A0471C
S2140802F0002340F24F424FF040512846A0470D4C8D
S21408030040464FF44041A04738464FF04061A0476A
S21408031030460E21A04728462346BDE8F04140F265
S2140803204F41184700100E409508080000120E406E
S21408033000140E40E7070800000E0E4082B01E2389
S2140803400193019B5A1E0192002BFAD102B0704706
S21408035010B54FF480610448044B9847BDE8104038
S21408036002210348034B184700140E40E70708000D
S21408037000120E40EB07080010B54FF480610448E1
S214080380044B9847BDE8104002210348034B184722
S21408039000140E40EB07080000120E40E70708009E
S2140803A070B50A4C0A4D20460821A847094E204633
S2140803B00421B047084B984720460821B0472046F6
S2140803C02B46BDE870400421184700BF00120E40B7
S2140803D0E7070800EB0708003D030800C0E90A2302
S2140803E0704700002DE9F04F0446D0E90A2300F1D3
S2140803F02001D1E9000185B0244FB847D4E90E8919
S21408040082468B46224D42464B46C4E900ABA84777
S214080410D4E906231F4EB04702460B46CDE9000135
S214080420C4E90623D4E9042350465946B847424649
S2140804304B46194FB84702460B46CDE90201C4E9B8
S2140804400223D4E9102350465946A847D4E9122374
S21408045080468946DDE90001A84702460B46404625
S2140804604946B047D4E9142380468946DDE90201A7
S214080470A84702460B4640464946B047C4E904AB7F
S214080480C4E90C0105B0BDE8F08F00BF650D080093
S214080490CD100800690D08002113080000F130018E
S2140804A0D1E900017047000007B5044B1B680193AB
S2140804B0019B034B984703B05DF804FB20400840B7
S2140804C0A103080037B52B4B2B4C1B680E21019354
S2140804D0019B2A482A4B257898472A4AEDB242F8C3
S2140804E0250023780133DBB2237023780A2B3FD903
S2140804F00023254923700978002939D0184652F870
S214080500231001330A2B0844F9D1B0FBF3F41F4B30
S2140805101B689C428CBF1E4B1E4B98471E4B2046A2
S214080520984702460B461D481D4988471B481D4BE1
S21408053098471D4B194898471C4B98471C4B002852
S214080540B8BF404218601A68022A1A4A0EDD05210A
S21408055011601A680A235343174A92FBF3F240F6CF
S214080560B833934238BF1346144A00E00223136098
S21408057003B030BD30000C404805072000000C4092
S214080580D9070800C8050720490507204C05072095
S2140805905103080079030800E10F0800F00507205A
S2140805A0DD030800E50308009D040800F1140800B0
S2140805B0440507200040084080DE80021C400840B2
S2140805C0014B01221A7070474905072000000000F9
S2140805D010B50B4B984708A3D3E90023094CA0474E
S2140805E0094B9847094B18601868094B9847094BF8
S2140805F0C3E9080110BD00BF7B14AE47E17A34405A
S21408060025100800CD100800411508004C050720E5
S214080610E10F0800F005072010B5074CC4E91023C1
S214080620DDE90223C4E90E01C4E91223DDE9042347
S214080630C4E9142310BD00BFF00507200000000021
S21408064010B5094B40009847084C02460B4604A1D3
S214080650D1E90001A047064B9847064B186010BD25
S21408066000000000F4068441011008002113080069
S214080670411508004C06072037B51A4B1A4A1B685E
S2140806800193019B1378012B12D1184B184D18684B
S214080690184B194C1968884206D91A6801321A602C
S2140806A01868164B984701E0002313702B682360E0
S2140806B0134A1378012B12D10E4B0C491868096897
S2140806C00B4D88420C4C06D91A68013A1A6018680D
S2140806D00A4B984701E0002313702B68236003B089
S2140806E030BD00BFA0000840F8000720F000072033
S2140806F0F4000720EC0007209C000840410608008C
S21408070050050720064B82B01B6800220193019B08
S214080710044B1A70044B1A68044B1A6002B07047F0
S21408072020000840C40507204C0607201C00084087
S21408073070B50F480F4CA0473E2100200E4B984737
S2140807400E4DA8470028FCD00D4B98470D4A0E4B77
S2140807500E4D9A62A8470028FCD00D4B10209847EB
S2140807600C4B98472346BDE870400148184700BF21
S21408077000BD0105890007206D0A0800BD0A0800AB
S214080780CD0A0800013F0D2000060E40DD0A0800CD
S214080790290A0800B10B08000A4B10B54FF40042AE
S2140807A05A60094C0B20A0470C20A0470D20A047F4
S2140807B00E20A047BDE81040044A4FF44071044894
S2140807C0044B1847501A0E40ED0A080001000008AE
S2140807D0000E0E40150908000F299ABF503050F831
S2140807E0210000207047016370474163704721F07D
S2140807F00061B1F1405F0CBF836BC36B134214BF3B
S214080800012000207047B1F1805F426414D009D8F7
S214080810B1B1B1F1006F12D1016F036F0B4023EA3B
S21408082002030BE0B1F1405F0AD0B1F1605F07D078
S214080830B1F1205F03D17047036F1343036742602B
S2140808407047D30741644CBF4166016612F00A0F31
S21408085014BF01624162930702D5C0F8801003E016
S214080860130748BFC0F8841041610160704710B58F
S214080870029C41640CB1416600E001660BB101655B
S21408088000E041650AB1016300E04163016101606F
S21408089010BD0000B1F1205F73B5054614461E462C
S2140808A017D006D8B1F1006F0AD0B1F1805F07D033
S2140808B023E0B1F1405F12D0B1F1605F0FD01CE0C9
S2140808C0284622460E4B9847F0074CBF6C662C66A7
S2140808D003E01A4621460B4B984701200EE001F12B
S2140808E0484106F001034A4200934A41C6F3800392
S2140808F021462846044CA047EFE7002002B070BD0A
S21408090007080800430808006F080800C06C70470E
S214080910806C704702F0F043B3F1205F73B504466D
S2140809200D4616461CD00BD8B3F1006F0FD0B3F1A6
S214080930805F29D16164036F0B43036761600AE037
S214080940B3F1405F10D0B3F1605F0DD01CE00A46EB
S21408095019460F4B9847F0074CBF6566256601E0B9
S2140809600C4B9847012010E006F0605202F148410F
S21408097006F001034A4200934A412046C6F3800324
S2140809802946054CA047EDE7002002B070BD00BF21
S21408099007080800430808006F080800F8B5134B56
S2140809A004460F469847124B05462046984705408A
S2140809B01AD0104C04F1600654F80C3CBB420FD118
S2140809C054F8081C29420BD023683846984754F830
S2140809D0083CA64225EA030506D0103425B1EBE705
S2140809E0A64201D01034E7E7F8BD00BF0D0908009D
S2140809F011090800600507200B210148014B18471C
S214080A00000E0E409D0908000C210148014B1847AE
S214080A1000100E409D0908000E210148014B18479A
S214080A2000140E409D0908000F4B1A6B22F0700246
S214080A30104340F601021863986E0B49000703D46A
S214080A40013AF9D1012070470A6B22F0030242F0FE
S214080A5002020A6340F60102996E090702D4013AB7
S214080A60FAD1EFE70020704700060E4010B5104C8C
S214080A7030B1236A0F4A1A400F4B1343236210BD46
S214080A80226A090222F45C1323F0030343F45C137E
S214080A9089B243F001030B432362A36E044ADB07C3
S214080AA0FBD5136A43F09B7343F48033136210BD7F
S214080AB000060E40FCFFC8FE02003701024B986E87
S214080AC000F48030704700BF00060E40024B4FF01F
S214080AD000529A62704700BF00060E40024B986E9E
S214080AE000F00200704700BF00060E402C2817D8FA
S214080AF01F280D4A4FF0010307D8916903FA00F042
S214080B0030EA01030ED010610CE02038D2F8081144
S214080B1003FA00F030EA010304D0C2F8000101E04D
S214080B20012070470020704700060E40FEE70000D0
S214080B3008B5164A164B9A4202D0043A154903E0FD
S214080B40154B164A002106E08B42F9D252F8040FDC
S214080B5043F8040BF8E7934202D243F8041BFAE77B
S214080B600F4B104A23F0604121F07F0103F16043E8
S214080B70B3F5801F91603EBF936843F000539360BF
S214080B80094B9847094B9847FEE700BFE816080048
S214080B9000000720280507202805072050060720FC
S214080BA00000080000ED00E081150800E10C0800D0
S214080BB010B52C4A136B03F00303012B2A4B0DD0F8
S214080BC003D3116ACC011AD525E0284949690806D5
S214080BD04CBF4FF400414FF4FA4130E0116AC901A6
S214080BE00BD423491960116A01F07001102902D04C
S214080BF0202902D024E01F4921E01F491FE01C4994
S214080C001960116A01F07001102902D0202902D05B
S214080C1003E0184900E018491960116B114801F003
S214080C200301022901BF816A806AC1F30A44196870
S214080C3003BFC0B204FB0111B1FBF0F10F49196004
S214080C40126B02F07002702A03BF1A680321B2FB07
S214080C50F1F2044A1FBF126BC2F302111A68CA40A7
S214080C601A6010BD00060E40FC000720101A0E4041
S214080C7000093D0000127A00001BB700001C4E0E4B
S214080C80084B82B01B68084A0193019B074B1B68F8
S214080C90DBB28DF803309DF80330DBB2136002B088
S214080CA0704700BF14080E401C080E4018080E4077
S214080CB007B5074B4FF480321B684FF0205101935D
S214080CC0019B0448044B984703B05DF804FB00BF3B
S214080CD06000084000120E40EF0708000000000001
S214080CE01FB5154B9847154B9847154B9847154B06
S214080CF098470BA1D1E900010BA3D3E90023124CB6
S214080D00CDE902230AA3D3E90023CDE90023002274
S214080D100E4BA0470E4B0F4898470F4B9847FEE7D9
S214080D20FCA9F1D24D62503F7B14AE47E17A743F7E
S214080D307B14AE47E17A843F31070800990708001C
S214080D40B9020800510108001906080000002E40E4
S214080D50D10508000000F042C105080081F00041F6
S214080D6002E000BF83F0004330B54FEA41044FEA83
S214080D70430594EA050F08BF90EA020F1FBF54EA1E
S214080D80000C55EA020C7FEA645C7FEA655C00F0BA
S214080D90E2804FEA5454D4EB5555B8BF6D420CDD8B
S214080DA02C4480EA020281EA030382EA000083EA0E
S214080DB0010180EA020281EA0303362D88BF30BDAE
S214080DC011F0004F4FEA01314FF4801C4CEA113104
S214080DD002D0404261EB410113F0004F4FEA033363
S214080DE04CEA133302D0524263EB430394EA050FEE
S214080DF000F0A780A4F10104D5F1200E0DDB02FA5D
S214080E000EFC22FA05F2801841F1000103FA0EF2F0
S214080E10801843FA05F359410EE0A5F120050EF1B6
S214080E20200E012A03FA0EFC28BF4CF0020C43FAE7
S214080E3005F3C01851EBE37101F0004507D54FF0F4
S214080E40000EDCF1000C7EEB00006EEB0101B1F544
S214080E50801F1BD3B1F5001F0CD349085FEA30008A
S214080E604FEA3C0C04F101044FEA445212F5800F95
S214080E7080F09A80BCF1004F08BF5FEA500C50F132
S214080E80000041EB045141EA050130BD5FEA4C0C15
S214080E90404141EB010111F4801FA4F10104E9D19E
S214080EA091F0000F04BF01460020B1FA81F308BF95
S214080EB02033A3F10B03B3F120020CDA0C3208DD61
S214080EC002F1140CC2F10C0201FA0CF021FA02F13C
S214080ED00CE002F11402D8BFC2F1200C01FA02F1AC
S214080EE020FA0CFCDCBF41EA0C019040E41AA2BFD1
S214080EF001EB0451294330BD6FEA04041F3C1CDA99
S214080F000C340EDC04F11404C4F1200220FA04F0B8
S214080F1001FA02F340EA030021FA04F345EA030162
S214080F2030BDC4F10C04C4F1200220FA02F001FA24
S214080F3004F340EA0300294630BD21FA04F02946A6
S214080F4030BD94F0000F83F4801306BF81F480113F
S214080F500134013D4EE77FEA645C18BF7FEA655CB2
S214080F6029D094EA050F08BF90EA020F05D054EA84
S214080F70000C04BF1946104630BD91EA030F1EBF89
S214080F800021002030BD5FEA545C05D1400049418D
S214080F9028BF41F0004130BD14F580043CBF01F580
S214080FA0801130BD01F0004545F0FE4141F4700166
S214080FB04FF0000030BD7FEA645C1ABF1946104641
S214080FC07FEA655C1CBF0B46024650EA013406BF42
S214080FD052EA033591EA030F41F4002130BD00BF01
S214080FE090F0000F04BF0021704730B54FF48064BE
S214080FF004F132044FF000054FF0000150E700BF3F
S21408100090F0000F04BF0021704730B54FF480649D
S21408101004F1320410F0004548BF40424FF000018A
S2140810203EE700BF42004FEAE2014FEA31014FEACD
S21408103002701FBF12F07F4393F07F4F81F060511C
S214081040704792F0000F14BF93F07F4F704730B58B
S2140810504FF4607401F0004521F0004120E700BF1E
S21408106050EA010208BF704730B54FF000050AE0A5
S21408107050EA010208BF704730B511F0004502D5A6
S214081080404261EB41014FF4806404F132045FEAA8
S214081090915C3FF4DCAE4FF003025FEADC0C18BF4D
S2140810A003325FEADC0C18BF033202EBDC02C2F143
S2140810B0200300FA03FC20FA02F001FA03FE40EAD5
S2140810C00E0021FA02F11444C1E600BF70B54FF0D5
S2140810D0FF0C4CF4E06C1CEA11541DBF1CEA1355B7
S2140810E094EA0C0F95EA0C0F00F0DEF82C4481EA1F
S2140810F0030621EA4C5123EA4C5350EA013518BF3F
S21408110052EA033541F4801143F4801338D0A0FB2B
S21408111002CE4FF00005E1FB02E506F00042E0FBD8
S21408112003E54FF00006E1FB03569CF0000F18BFDE
S2140811304EF0010EA4F1FF04B6F5007F64F5407486
S21408114004D25FEA4E0E6D4146EB060642EAC62119
S21408115041EA55514FEAC52040EA5E504FEACE2E86
S214081160B4F1FD0C88BFBCF5E06F1ED8BEF1004F89
S21408117008BF5FEA500E50F1000041EB045170BD05
S21408118006F0004646EA010140EA020081EA030149
S214081190B4EB5C04C2BFD4EB0C0541EA045170BD45
S2140811A041F480114FF0000E013C00F3AB8014F1BF
S2140811B0360FDEBF002001F0004170BDC4F1000408
S2140811C0203C35DA0C341BDC04F11404C4F1200589
S2140811D000FA05F320FA04F001FA05F240EA0200E4
S2140811E001F0004221F0004110EBD37021FA04F61A
S2140811F042EB06015EEA430E08BF20EAD37070BDD4
S214081200C4F10C04C4F1200500FA04F320FA05F032
S21408121001FA04F240EA020001F0004110EBD37034
S21408122041F100015EEA430E08BF20EAD37070BDA4
S214081230C4F1200500FA05F24EEA020E20FA04F37D
S21408124001FA05F243EA020321FA04F001F000412C
S21408125021FA04F220EA020000EBD3705EEA430E9D
S21408126008BF20EAD37070BD94F0000F0FD101F0CC
S2140812700046400041EB010111F4801F08BF013C05
S214081280F7D041EA060195F0000F18BF704703F043
S2140812900046520043EB030313F4801F08BF013DCA
S2140812A0F7D043EA0603704794EA0C0F0CEA135586
S2140812B018BF95EA0C0F0CD050EA410618BF52EA40
S2140812C04306D1D181EA030101F000414FF0000046
S2140812D070BD50EA410606BF1046194652EA430654
S2140812E019D094EA0C0F02D150EA013613D195EAC8
S2140812F00C0F05D152EA03361CBF104619460AD110
S21408130081EA030101F0004141F0FE4141F4700119
S2140813104FF0000070BD41F0FE4141F4780170BD09
S21408132070B54FF0FF0C4CF4E06C1CEA11541DBF6E
S2140813301CEA135594EA0C0F95EA0C0F00F0A7F870
S214081340A4EB050481EA030E52EA03354FEA01319D
S21408135000F088804FEA03334FF0805545EA1313B0
S21408136043EA12634FEA022245EA111545EA106578
S2140813704FEA00260EF000419D4208BF964244F10F
S214081380FD0404F5407402D25B084FEA3202B61A2E
S21408139065EB03055B084FEA32024FF480104FF402
S2140813A0002CB6EB020E75EB030E22BFB61A754676
S2140813B040EA0C005B084FEA3202B6EB020E75EB09
S2140813C0030E22BFB61A754640EA5C005B084FEA71
S2140813D03202B6EB020E75EB030E22BFB61A75463E
S2140813E040EA9C005B084FEA3202B6EB020E75EB49
S2140813F0030E22BFB61A754640EADC0055EA060E0A
S21408140018D04FEA051545EA16754FEA06164FEA4C
S214081410C30343EA52734FEAC2025FEA1C1CC0D1F8
S21408142011F4801F0BD141EA00014FF000004FF085
S214081430004CB6E711F4801F04BF01430020B4F146
S214081440FD0C88BFBCF5E06F3FF6AFAEB5EB030CFE
S21408145004BFB6EB020C5FEA500C50F1000041EBFB
S214081460045170BD0EF0004E4EEA113114EB5C04C8
S214081470C2BFD4EB0C0541EA045170BD41F480119B
S2140814804FF0000E013C90E645EA060E8DE60CEAA3
S214081490135594EA0C0F08BF95EA0C0F3FF43BAFC0
S2140814A094EA0C0F0AD150EA01347FF434AF95EA77
S2140814B00C0F7FF425AF104619462CE795EA0C0F5B
S2140814C006D152EA03353FF4FDAE1046194622E728
S2140814D050EA410618BF52EA43067FF4C5AE50EA02
S2140814E041047FF40DAF52EA43057FF4EBAE12E7F2
S2140814F04FEA410212F5001215D211D56FF478732F
S214081500B3EB625212D94FEAC12343F0004343EAD1
S214081510505311F0004F23FA02F018BF40427047AC
S2140815204FF00000704750EA013005D111F0004036
S21408153008BF6FF0004070474FF00000704700BFCC
S2140815404A0011D212F5001211D20DD56FF4787335
S214081550B3EB62520ED44FEAC12343F0004343EA8A
S214081560505323FA02F070474FF00000704750EAD5
S214081570013002D14FF0FF3070474FF0000070473F
S21408158070B50F4E0F4D761BB61018BF002405D049
S214081590013455F8043B9847A642F9D10A4E0B4D3C
S2140815A000F090F8761BB61018BF002406D0013459
S2140815B055F8043B9847A642F9D170BD70BD00BFE8
S2140815C0D0160800D0160800D8160800D01608004E
S2140815D0024B13B1024800F005B87047000000003F
S2140815E0F1150800002301461A46184600F014B8FC
S2140815F038B5074D074C2C1BA41005D0013C55F8F0
S214081600043D9847002CF9D1BDE8384000F064B88E
S214081610E8160800E41608002DE9F047254C0646AB
S21408162025688846D5F8484192469946C4B3606806
S2140816301F2817DC411C76B104EB8003C3F888A08A
S214081640D4F88851012282401543022EC4F88851E6
S214081650C3F808911ED0831C6160002044F82380DC
S214081660BDE8F087144B03B34FF4C870AFF300809F
S2140816700446D0B1D5F84831002784E888003846B3
S214081680C5F848410121C4F88871C4F88C71002E49
S214081690E1D0D1E7D4F88C311A43C4F88C21DAE7C4
S2140816A005F5A674C5F84841C1E74FF0FF30BDE818
S2140816B0F08700BFC01608000000000043000000C6
S2140816C000010720F8B500BFF8BC08BC9E46704766
S2140816D0D115080019010800F8B500BFF8BC08BC09
S20C0816E09E467047F50008005D
S2140816E81A4A4FF480631360C2F80032184B1A6A15
S2140816F8D10102D5174A1A6205E0174A1A629A6E85
S214081708D207FCD5F6E79A6E1149D003FBD50A6BC3
S21408171822F0030242F001020A639A6E1207FCD509
S2140817280E490B4A91629A6E9007FCD5084A112111
S21408173811639A6E1107FCD5054A122111639A6E31
S2140817481207FCD5064A074B1A607047000A0E406F
S21408175800060E400908370109083700013F0D2022
S21408176800BD0105FC000720114B124A9842124B8F
S21408177801D8002118E01149884202D84FF4807130
S21408178812E00F49884202D84FF400710CE00D4960
S214081798884202D84FF4407106E00B49884294BF45
S2140817A84FF480614FF4A06111601960704700BF5C
S2140817B8BFEA2101000A0E40000C0E407FF0FA022C
S2140817C8FF8FD003FFB3C4047F4A5D05E803000013
S2140817D8E8030000D00700000101000000093D00EA
S2140817E800000000EC03072054040720BC04072068
S2140817F800000000000000000000000000000000D4
S21408180800000000000000000000000000000000C3
S21408181800000000BC1608000000000000000000D9
S21408182800000000000000000000000000000000A3
S2140818380000000000000000000000000000000093
S2140818480000000000000000000000000000000083
S2140818580000000000000000000000000000000073
S2140818680000000000000000000000000000000063
S2140818780000000000000000000000000000000053
S2140818880000000000000000010000000000000042
S2140818980E33CDAB34126DE6ECDE05000B00000007
S2140818A80000000000000000000000000000000023
S2140818B80000000000000000000000000000000013
S2140818C80000000000000000000000000000000003
S2140818D800000000000000000000000000000000F3
S804080B31B7
